:020000040000fa
:10000000f07f00201903000087050000890500002b
:1000100000000000000000000000000000000000e0
:100020000000000000000000000000008505000046
:1000300000000000000000008505000085050000ac
:100040008505000085050000850500008505000088
:100050008505000085050000850500008505000078
:100060008505000085050000850500008505000068
:100070008505000085050000850500008505000058
:10008000850500008505000085050000610400006d
:100090008505000085050000850500008505000038
:1000a0008505000085050000850500008505000028
:020000040000fa
:1000b000f8b5c046f8bc08bc9e467047f90200007f
:1000c000f8b5c046f8bc08bc9e467047d102000097
:020000040000fa
:1000d000224a002393611361214a012151710731a2
:1000e0009171204a13831100920dcb681342fcd00a
:1000f0001d4b1b689b0e9b02802292001343194ae2
:10010000d3611100920dcb681342fcd0154b022233
:100110001a831900d201cb681342fcd0134b144a46
:100120001a62190004224b681a42fcd10f4ad423e8
:100130004021d15010009431402243581a42fcd043
:100140000a4af0234021d1501000b03140224358d8
:100150001a42fcd0034b00221a7570470010004071
:1001600000040040000c00402060800000180040a7
:040170000701010082
:020000040000fa
:10017400f0b5c6461f4a204b00b50021934203d276
:10018400197001339342fbd10b231c4a9c46083b54
:1001940098461368546819000026214311d01700ab
:1001a40091680c3700290fd11a19002c03d01e7046
:1001b40001339342fbd13a00136854681900214378
:1001c400edd104bc9046f0bd6146c91a1d19511801
:1001d400002c05d05a1c505c187013009542f9d1bc
:1001e400434623405a1e9341a4081c19a4003f19f6
:1001f4003a00e1e7000000200000002004020000b3
:020000040000fa
:10020400500000201c000000000000006c000020d2
:100214000800000000000000790000200100000038
:100224000000000074000020050000000100000030
:10023400aaff1100230000007c000020040000003d
:10024400000000000000002050000000000000003a
:1002540080000020040000000000000000000000f6
:1002640000000000222222222222222222222222f2
:020000040000fa
:1002740000230e4a10b513600d4a13600d4a136033
:100284000d4a13600d4a13600d4a53621361013322
:10029400936000f079f900f077f90a4c0a4b9c421c
:1002a40000d310bd08cc9847f8e7c0468000002072
:1002b4000c000020080000200000002004000020a2
:0c02c40010000020bc000000c000000082
:020000040000fa
:1002d00010b5064c2378002b07d1054b002b02d01c
:1002e000044800e000bf0123237010bd500000202f
:1002f0000000000000000000044b10b5002b03d0ec
:100300000349044800e000bf10bdc04600000000e3
:08031000540000200000000071
:020000040000fa
:1003180010b50a4b98470a4b9847fff727ff094b38
:10032800ff229343084a9360084b9847084b984725
:10033800084b984700f010f8fee7c0468b05000010
:100348008b0500000000000000ed00e075020000d1
:080358008b0500008b0500007d
:020000040000fa
:1003600070b5002000f094f800f0ecf805210a4880
:1003700000f01af80021094800f0f8f8084a1600c1
:100380000025084c9c208021c9001378002bfcd04c
:1003900035702150f9e7c04674000020790500004f
:0803a000790000200028004054
:020000040000fa
:1003a80030b5002818d0002918d00d4a0124072597
:1003b80004e003881385023000290bd00139137e2d
:1003c8002342fcd053682b40012bf2d003781385cd
:1003d8000130f1e7012030bd0020fce70120fae7f9
:0403e800000c0042c3
:020000040000fa
:1003ec000c4b01221a6019000b691a42fcd1094b03
:1003fc0018221a60153a1a73074ada6133229a7274
:10040c00064a0021116001225a721a001369002b4e
:10041c00fcd170470028004200366e016c000020b1
:020000040000fa
:10042c000a4b0b4a1a60d22252429a81c022920283
:10043c005a601a00d369002bfcd1044a13680221bc
:10044c000b431360d369002bfcd17047000c0042a6
:04045c000401004057
:020000040000fa
:1004600010b5094b5b7a002b0dd0074b987ac0b2c0
:1004700033229a72002806d0044b1b68002b02d04e
:10048000024a5168984710bd002800426c000020c5
:020000040000fa
:1004900010b50a4b06225a6000f012f800f028f856
:1004a000fff716fefff7c2ff00f05af800f01ff842
:1004b000fff79cff00f032f810bdc046004000413d
:020000040000fa
:1004c0008023db0500221a819a7901210a439a715f
:1004d0009b7803221340022b08d08023db05013ace
:0e04e0009a701900013a8b791342fcd07047d4
:020000040000fa
:0204ee00704755
:020000040000fa
:1004f000094b012256215a5401315a543a323539a6
:1005000099548022d2005e315a5010315a50ca227a
:0c051000002199547047c04600280040ac
:020000040000fa
:10051c00bff35f8f62b6074ac420800013581b02da
:10052c001b0ac02109060b43135080231b031360c5
:08053c007047c04600e100e039
:020000040000fa
:10054400054a136802210b431360110002220b6950
:0c0554001a42fcd17047c046002800424b
:020000040000fa
:0c056000014b84225a60704700400041ab
:020000040000fa
:0c056c00014b1860596070476c000020c3
:020000040000fa
:0c057800014b01221a707047790000202e
:020000040000fa
:02058400fee790
:020000040000fa
:02058600fee78e
:020000040000fa
:02058800fee78c
:020000040000fa
:02058a007047b8
:020000040000fa
:02058c007047b6
:020000040000fa
:0200000400807a
:04400000770600b08f
:020000040000fa
:0200000400807a
:04400400bb00ffffff
:00000001FF
