:020000040000fa
:10000000f07f0020e5020000bb040000bd040000fa
:1000100000000000000000000000000000000000e0
:10002000000000000000000000000000b904000013
:100030000000000000000000b9040000b904000046
:10004000b9040000b9040000b9040000b9040000bc
:10005000b9040000b9040000b9040000b9040000ac
:10006000b9040000b9040000b9040000b90400009c
:10007000b9040000b9040000b9040000b90400008c
:10008000b9040000b9040000b9040000a90300008d
:10009000b9040000b9040000b9040000b90400006c
:1000a000b9040000b9040000b9040000b90400005c
:020000040000fa
:1000b000f8b5c046f8bc08bc9e467047c5020000b3
:1000c000f8b5c046f8bc08bc9e4670479d020000cb
:020000040000fa
:1000d0001d4a0023936113611c4a012151710731ac
:1000e00091711b4a13831100920dcb681342fcd00f
:1000f000184b1b689b0e9b02802292001343144aec
:10010000d3611100920dcb681342fcd0104b022238
:100110001a831900d201cb681342fcd00e4b0f4a50
:100120001a62190004224b681a42fcd10a4af023d1
:100130004021d1501000b031402243581a42fcd027
:10014000034b00221a757047001000400004004065
:10015000000c0040206080000018004007010100f2
:020000040000fa
:10016000f0b5c6461f4a204b00b50021934203d28a
:10017000197001339342fbd10b231c4a9c46083b68
:1001800098461368546819000026214311d01700bf
:1001900091680c3700290fd11a19002c03d01e705a
:1001a00001339342fbd13a0013685468190021438c
:1001b000edd104bc9046f0bd6146c91a1d19511815
:1001c000002c05d05a1c505c187013009542f9d1d0
:1001d000434623405a1e9341a4081c19a4003f190a
:1001e0003a00e1e700000020000000204c0200007f
:020000040000fa
:1001f00000230e4a10b513600d4a13600d4a1360b8
:100200000d4a13600d4a13600d4a536213610133a6
:10021000936000f055f900f053f90a4c0a4b9c42e8
:1002200000d310bd08cc9847f8e7c04678000020fe
:100230000c00002008000020000000200400002026
:0c02400010000020bc000000c000000006
:020000040000fa
:10024c00500000201c000000000000006c0000208a
:10025c0008000000000000007c00002001000000ed
:10026c0000000000740000200400000000000000ea
:10027c00000000205000000000000000780000206a
:10028c00040000000000000000000000000000005e
:020000040000fa
:10029c0010b5064c2378002b07d1054b002b02d050
:1002ac00044800e000bf0123237010bd5000002063
:1002bc000000000000000000044b10b5002b03d020
:1002cc000349044800e000bf10bdc0460000000018
:0802dc005400002000000000a6
:020000040000fa
:1002e40010b50a4b98470a4b9847fff737ff094b5d
:1002f400ff229343084a9360084b9847084b98475a
:10030400084b984700f030f8fee7c046bf040000f1
:10031400bf0400000000000000ed00e0f101000057
:08032400bf040000bf0400004b
:020000040000fa
:10032c000c4b01221a6019000b691a42fcd1094bc3
:10033c0018221a60153a1a73074ada6133229a7234
:10034c00064a0021116001225a721a001369002b0f
:10035c00fcd170470028004200366e016c00002072
:020000040000fa
:10036c0070b5002000f04af800f080f80021084831
:10037c0000f090f8074a16000025074c9c208021bd
:10038c00c9001378002bfcd035702150f9e7c0461a
:0c039c00ad0400007c00002000280040a0
:020000040000fa
:1003a80010b5094b5b7a002b0dd0074b987ac0b279
:1003b80033229a72002806d0044b1b68002b02d007
:1003c800024a5168984710bd002800426c0000207e
:020000040000fa
:1003d8008023db0500221a819a7901210a439a7148
:1003e8009b7803221340022b08d08023db05013ab7
:0e03f8009a701900013a8b791342fcd07047bd
:020000040000fa
:0204060070473d
:020000040000fa
:1004080010b5094b06225a60fff7e2ff00f022f808
:10041800fff75afe00f03af8fff7f1fffff782ff07
:0c04280000f004f810bdc0460040004188
:020000040000fa
:10043400bff35f8f62b6074ac420800013581b02c3
:100444001b0ac02109060b43135080231b031360ae
:080454007047c04600e100e022
:020000040000fa
:10045c00054b8022d20080215a5010315a50ca22aa
:0c046c00002199547047c0460028004051
:020000040000fa
:10047800054a136802210b431360110002220b691d
:0c0488001a42fcd17047c0460028004218
:020000040000fa
:0c049400014b84225a6070470040004178
:020000040000fa
:0c04a000014b1860596070476c00002090
:020000040000fa
:0c04ac00014b01221a7070477c000020f8
:020000040000fa
:0204b800fee75d
:020000040000fa
:0204ba00fee75b
:020000040000fa
:0204bc00fee759
:020000040000fa
:0204be00704785
:020000040000fa
:0204c000704783
:020000040000fa
:0200000400807a
:04400000770600b08f
:020000040000fa
:0200000400807a
:04400400bb00ffffff
:00000001FF
